:100000000C9461000C947E000C947E000C947E0095
:100010000C947E000C947E000C947E000C947E0068
:100020000C947E000C947E000C947E000C947E0058
:100030000C947E000C947E000C947E000C947E0048
:100040000C949B040C947E000C947E000C947E0017
:100050000C947E000C947E000C947E000C947E0028
:100060000C947E000C947E00000000002400270009
:100070002A0000000000250028002B0000000000DE
:1000800023002600290004040404040404040202DA
:100090000202020203030303030301020408102007
:1000A0004080010204081020010204081020000012
:1000B0000008000201000003040700000000000027
:1000C000000011241FBECFEFD8E0DEBFCDBF11E08E
:1000D000A0E0B1E0E2E7F3E102C005900D92A03F9D
:1000E000B107D9F722E0A0EFB1E001C01D92A63020
:1000F000B207E1F70E94E5040C94B7090C940000E4
:10010000833081F028F4813099F08230A1F0089595
:100110008730A9F08830B9F08430D1F48091800024
:100120008F7D03C0809180008F7780938000089539
:1001300084B58F7702C084B58F7D84BD089580918A
:10014000B0008F7703C08091B0008F7D8093B000A6
:100150000895CF93DF93282F30E0F901E255FF4F48
:100160008491F901E656FF4FD491F901EA57FF4F08
:10017000C491CC2391F081110E948000EC2FF0E01B
:10018000EE0FFF1FE458FF4FA591B491EC91ED23C2
:1001900081E090E021F480E002C080E090E0DF9117
:1001A000CF9108951F93CF93DF93282F30E0F9016B
:1001B000E255FF4F8491F901E656FF4FD491F901C2
:1001C000EA57FF4FC491CC23C9F0162F81110E942A
:1001D0008000EC2FF0E0EE0FFF1FEE58FF4FA591CF
:1001E000B4918FB7F894111105C09C91ED2FE09553
:1001F000E92302C0EC91ED2BEC938FBFDF91CF91FF
:100200001F910895CF93DF9390E0FC01E656FF4FD6
:100210002491FC01EA57FF4F8491882361F190E01B
:10022000880F991FFC01E859FF4FC591D491FC013B
:10023000EE58FF4FA591B491611109C09FB7F89492
:100240008881209582238883EC912E230BC0623015
:1002500061F49FB7F8943881822F80958323888337
:10026000EC912E2B2C939FBF06C08FB7F894E8819A
:100270002E2B28838FBFDF91CF9108953FB7F8943D
:100280008091F5019091F601A091F701B091F801EC
:1002900026B5A89B05C02F3F19F00196A11DB11DE1
:1002A0003FBFBA2FA92F982F8827820F911DA11D1C
:1002B000B11DBC01CD0142E0660F771F881F991F59
:1002C0004A95D1F708958F929F92AF92BF92CF92A5
:1002D000DF92EF92FF926B017C010E943E014B0185
:1002E0005C01C114D104E104F104F1F00E943E016B
:1002F000DC01CB0188199909AA09BB09883E934002
:10030000A105B10570F321E0C21AD108E108F10896
:1003100088EE880E83E0981EA11CB11CC114D10484
:10032000E104F10419F7DDCFFF90EF90DF90CF905B
:10033000BF90AF909F908F9008952FB7F8946091E1
:10034000F1017091F2018091F3019091F4012FBFBE
:100350000895CF93DF93EC0181E0683709F480E0E2
:10036000682F89E00E94D2006C2F61708DE00E949E
:10037000D200BE017695679561708CE00E94D20034
:10038000BE01769567957695679561708BE00E94C2
:10039000D20023E0D695C7952A95E1F76C2F6170BE
:1003A0008AE0DF91CF910C94D2008031910510F456
:1003B0000C94A90108954F925F926F927F92AF9231
:1003C000BF92CF92DF92EF92FF920F931F93CF9342
:1003D000DF930E949D01A0902A01B0902B0101E0C3
:1003E00011E06B017C01C0E0D0E089E0482E512C87
:1003F000612C712CCA15DB059CF4C701B601A30161
:1004000092010E9495096F5F7F4FF801619371938C
:100410008F012196F9E8CF0ED11CE11CF11CEACF27
:10042000DF91CF911F910F91FF90EF90DF90CF90D0
:10043000BF90AF907F906F905F904F9008950F9313
:100440001F93CF93DF93C8EED1E08C018881229671
:100450000E94A90021E0019709F020E0F801219312
:100460008F01F1E0C03FDF0789F7DF91CF911F9146
:100470000F910895CF93DF93109202021092010220
:10048000ECE2F1E08FEF9FEF8193919321E0E0396F
:10049000F207D1F780E28093000142E050E020E0D3
:1004A00030E0FA01EF56FE4FDF0112979C912F5F6B
:1004B0003F4F9D32C1F0BA016150710911968C9184
:1004C000981311C0808198130EC070932D01609312
:1004D0002C0150932F0140932E01A901440F551F69
:1004E000240F351F25C04D5F5F4F4B305105C9F6B6
:1004F000E1E9F1E0DF0120E030E08D91A9014F5FFB
:100500005F4F8D32E1F0E901CF56DE4F9B818913B9
:1005100016C09E81891313C050932D0140932C0166
:100520004D5F5F4F50932F0140932E01295F3F4F46
:10053000309331012093300123E030E045C09A012F
:1005400043305105D1F6809191018D32F9F09091AF
:10055000950189131BC090919901891317C021E05F
:1005600030E030932D0120932C0125E030E03093D2
:100570002F0120932E0129E030E0309331012093A8
:100580003001509302024093010222C080919301F6
:100590008D3209F19091950189131DC090919701B9
:1005A000891319C023E030E030932D0120932C01F2
:1005B00045E050E050932F0140932E0147E050E07A
:1005C0005093310140933001309302022093010295
:1005D000809300010AC081918D3231F081E0EA39C7
:1005E000F807C9F784E601C083E6DF91CF9108954B
:1005F000EF92FF920F931F93CF93DF93F82E01E9B1
:1006000011E0C0E0D0E0F801E080FDE2EF1208C0A8
:10061000F801F0820E943A02F801E0828F1549F059
:1006200021960F5F1F4FC930D10569F78FEF9FEFFC
:1006300001C0CE01DF91CF911F910F91FF90EF90FC
:100640000895E1E9F1E08DE2819321E0EA39F207D2
:10065000D9F788E78093900110920302109202026A
:1006600010920102ECE2F1E08FEF9FEF8193919302
:1006700021E0E039F207D1F780E28093000161E0E8
:1006800087E00E94D2006AE070E080E090E00E9483
:10069000630160E087E00C94D200CF93DF93EC011C
:1006A0004097B0F580910302811111C080919001B3
:1006B000883731F460E089E00E94D2008FE605C0FF
:1006C00061E089E00E94D20088E7809390016C2F5E
:1006D00061708DE00E94D200BE01769567956170D1
:1006E0008CE00E94D200BE0176956795769567955D
:1006F00061708BE00E94D20023E0D695C7952A95C1
:10070000E1F76C2F61708AE0DF91CF910C94D200F9
:10071000DF91CF91089561E088E00E94D2006AE005
:1007200070E080E090E00E94630160E088E00E9459
:10073000D20060E08DE00E94D20060E08CE00E9478
:10074000D20060E08BE00E94D20060E08AE00C946E
:10075000D200CF93DF93C1E0D0E0C0FD02C068E7D4
:1007600001C06FE6CE010E94D5010E948B0368ECA8
:1007700070E080E090E00E9463012196CA30D105CC
:1007800061F764EF71E080E090E00E9463011092F5
:100790000502DF91CF910C942103EF92FF920F930A
:1007A0001F93CF93DF93ECE2F1E080E090E00196BD
:1007B0008193919389309105D1F7909302028093B0
:1007C000010261E087E00E94D2006AE070E080E010
:1007D00090E00E94630160E087E00E94D20064E63E
:1007E00070E080E090E00E9463010AE010E081E99F
:1007F000E82E81E0F82ECCE2D1E0F70181917F0173
:10080000883711F460E001C061E089E00E94D20005
:10081000899199918F3FFFEF9F0721F00E944D032F
:100820000E948B0321E0CE33D20739F768EC70E0E9
:1008300080E090E00E94630161E087E00E94D200C6
:100840006AE070E080E090E00E94630160E087E091
:100850000E94D20068EC70E080E090E00E946301AA
:100860000150110921F6DF91CF911F910F91FF9057
:10087000EF900C942103EF92FF920F931F93CF936D
:10088000DF9361E087E00E94D2006AE070E080E0E0
:1008900090E00E94630160E087E00E94D20064E67D
:1008A00070E080E090E00E94630161E089E00E94D6
:1008B000D2000AE010E08CE2E82E81E0F82EC0E0E1
:1008C000D0E08091010290910202C817D90774F418
:1008D000F701819191917F018F3FFFEF9F0721F0F9
:1008E0000E944D030E948B032196EBCF68EC70E0D1
:1008F00080E090E00E94630161E087E00E94D20006
:100900006AE070E080E090E00E94630160E087E0D0
:100910000E94D20068EC70E080E090E00E946301E9
:100920000150110941F6DF91CF911F910F91FF9076
:10093000EF900C9421031F920F920FB60F92112487
:100940002F933F938F939F93AF93BF938091F10128
:100950009091F201A091F301B091F4013091F00176
:1009600023E0230F2D3720F40196A11DB11D05C0F2
:1009700026E8230F0296A11DB11D2093F00180935C
:10098000F1019093F201A093F301B093F4018091EF
:10099000F5019091F601A091F701B091F80101964F
:1009A000A11DB11D8093F5019093F601A093F7016D
:1009B000B093F801BF91AF919F918F913F912F918B
:1009C0000F900FBE0F901F901895CF93DF93CDB768
:1009D000DEB766970FB6F894DEBF0FBECDBF789432
:1009E00084B5826084BD84B5816084BD85B5826034
:1009F00085BD85B5816085BD80916E0081608093E5
:100A00006E0010928100809181008260809381004D
:100A1000809181008160809381008091800081605D
:100A2000809380008091B10084608093B1008091B8
:100A3000B00081608093B00080917A0084608093E0
:100A40007A0080917A00826080937A0080917A00A7
:100A5000816080937A0080917A00806880937A0028
:100A60001092C10061E08DE00E94020161E08CE023
:100A70000E94020161E08BE00E94020161E08AE0D5
:100A80000E94020161E089E00E94020161E088E0C9
:100A90000E94020161E087E00E94020160E082E0C2
:100AA0000E94020160E083E00E94020160E084E0B5
:100AB0000E94020160E085E00E94020119E0412EDF
:100AC000512C612C712C1E0129E0220E311C88242E
:100AD0008A94982C1B8A1C8A1D8A1E8ACE014396F2
:100AE0000E941F02F0900502FF2009F45EC0809171
:100AF0002901882309F459C00E949D015B016C0102
:100B00008091F9019091FA01A091FB01B091FC0153
:100B1000A6019501281B390B4A0B5B0BDA01C901B1
:100B2000893E9340A105B10508F43FC00091FD0145
:100B30001091FE0180912A0190912B01081719074D
:100B4000CCF5F801EE0FFF1FEF5FFE4F68E78081E5
:100B500091810E94D5010E948B0364EF71E080E0D7
:100B600090E00E94630161E087E00E94D2006AE0A9
:100B700070E080E090E00E94630160E087E00E9406
:100B8000D2006CE271E080E090E00E946301C80155
:100B900001969093FE018093FD01A092F901B0921D
:100BA000FA01C092FB01D092FC01FE01739600E0B5
:100BB00010E03DC010922901109200021092FF0136
:100BC0001092FE011092FD0164EF71E080E090E070
:100BD0000E94630103E010E06FE685E090E00E9470
:100BE000A9010E948B0364E670E080E090E00E941F
:100BF000630161E087E00E94D2006AE070E080E07B
:100C000090E00E94630160E087E00E94D20064E609
:100C100070E080E090E00E94630101501109E1F66C
:100C2000C4CF0F5F1F4F0430110509F4F3C0819149
:100C30008823B9F362E370E080E090E00E946301F2
:100C4000000F111FF801E851FE4F1081812F0E9403
:100C5000A900892B39F46AE070E080E090E00E94FE
:100C60006301F4CFCE0143960E941F028E899D89B5
:100C70002C893B89311107C021110EC091111AC076
:100C800081114BC309C121110EC0911118C08111EE
:100C900047C301E010E021C0911116C08111D9C2F3
:100CA00002E010E01AC0911114C08111D5C203E016
:100CB00010E013C08111D3C204E010E00EC0811116
:100CC000D1C205E010E009C08111CFC206E010E0FA
:100CD00004C08111A7C007E010E0FF2009F4E0C0C4
:100CE0006FE6C8010E94D5010E948B036CE271E09F
:100CF00080E090E00E94630161E087E00E94D20002
:100D00006AE070E080E090E00E94630160E087E0CC
:100D10000E94D2008091FF0190910002FC01EE0F31
:100D2000FF1FEF5FFE4FE080F1800E151F0509F4F5
:100D3000C9C105E010E068E7C7010E94D5010E9423
:100D40008B0364EF71E080E090E00E94630161E05A
:100D500087E00E94D2006AE070E080E090E00E94AC
:100D6000630160E087E00E94D20064EF71E080E000
:100D700090E00E94630101501109E9F668EE73E00A
:100D800080E090E00E946301C0902A01D0902B0186
:100D900091E0C91AD10843E0E42EF12C00E010E004
:100DA000C601002E02C0959587950A94E2F70F5F61
:100DB0001F4F80FF06C068E7C8010E94D5010E944E
:100DC0008B030430110561F764EF71E080E090E07F
:100DD0000E94630161E087E00E94D2006AE070E057
:100DE00080E090E00E94630160E087E00E94D20012
:100DF00064EF71E080E090E00E946301E1E0EE1AB0
:100E0000F10861F60E94A90368EC70E080E090E0D0
:100E10000E94630180E090E0892B09F45BCE0E9480
:100E2000000055CEF110EECF34C0F70181919191C1
:100E30007F018F3FFFEF9F0721F00E944D030E942B
:100E40008B032FEFC21AD20A809101029091020205
:100E5000C816D90654F368EC70E080E090E00E9478
:100E6000630161E087E00E94D2006AE070E080E008
:100E700090E00E94630160E087E00E94D20068EC8D
:100E800070E080E090E00E9463010150110909F0D8
:100E900040C00E942103B8CFF110B6CF00E010E0AF
:100EA000F8013197E930F10508F0AECFEF56FE4F6B
:100EB00080818D3209F0A8CF8091900180830E94BB
:100EC0003A02883769F580910302811108C0C80190
:100ED0000E944D030E948B0381E08093030261E036
:100EE00087E00E94D2006AE070E080E090E00E941B
:100EF000630160E087E00E94D20064E670E080E079
:100F000090E00E94630160E089E00E94D2000AE064
:100F100010E03CE2E32E31E0F32EC12CD12C94CF33
:100F20008F3679F480910302811108C0C8010E94B4
:100F30004D030E948B0381E0809303020E943B04D7
:100F400063CF843651F4809103028111B4C0C8018B
:100F50000E944D030E948B03ABC0C8010E944D0349
:100F60000E948B0380910402882309F44DCF809165
:100F70000302811149CF64EF71E080E090E00E94AC
:100F8000630101E911E0F80180E090E021912D3248
:100F900009F0019631E0EA39F307C1F7029774F4DA
:100FA0000E949D01A30192010E9495096B01FB0122
:100FB000EF56FE4F20812D3299F764C08FE60E94D4
:100FC000F8026C01019609F05DC088E70E94F80202
:100FD0006C01019609F056C0209195012D3209F45B
:100FE0006DC028E0EAE9F1E0DE01119601900D9272
:100FF0002A95E1F7FE01319621913191D901AF5641
:10100000BE4F4C914D3221F0E215F305A9F701C016
:1010100069018FEFC816D806A9F5E12CF12C40E044
:1010200050E0F80161918F016D3271F4F701EE0F1C
:10103000FF1F21E030E02C0F3D1FE20FF31F518313
:1010400040833FEFE31AF30A4F5F5F4F493051058A
:1010500041F7E114F10491F00E949D019701FF0C0A
:10106000440B550B0E949509660F771FE1E0F0E0F5
:10107000EC0FFD1FE60FF71FC080D1804FEFC416A5
:10108000D40671F0F601EF56FE4F20812D3241F467
:101090002FE62083C60101960E944D030E948B0318
:1010A0000E943A028F3609F446CF843609F0ACCE5E
:1010B00081E0809303020E94CD03A6CE84E0C82E77
:1010C000D12CE0CF0196909300028093FF01009114
:1010D0002A0110912B01801791070CF495CE63E043
:1010E000E62EF12CCC24C394D12C68E7C6010E94D3
:1010F000D5010E948B034FEFC41AD40A5AE0C516DB
:10110000D10499F768EC70E080E090E00E94630100
:1011100061E087E00E94D2006AE070E080E090E049
:101120000E94630160E087E00E94D20068EC70E0FA
:1011300080E090E00E94630181E0E81AF10891F6F6
:101140000F5F1F4F053111052CF410932B010093F5
:101150002A0106C086E090E090932B0180932A013B
:10116000109200021092FF011092FE011092FD01F8
:1011700081E0809329010E94DB0164C00D301105DC
:1011800009F4BEC00C30110509F08ACE81E08093CD
:10119000050221E030E030932B0120932A011092C8
:1011A00000021092FF011092FE011092FD01809347
:1011B00029011092F9011092FA011092FB0110928C
:1011C000FC01E1E0F1E08192919221E0E932F20745
:1011D000D1F70E94DB0161E087E00E94D2006AE063
:1011E00070E080E090E00E94630160E087E00E9490
:1011F000D20001E010E000FD8EC068E7C8010E9447
:10120000D5010E948B0368EC70E080E090E00E94C2
:1012100063010F5F1F4F0B30110569F764EF71E039
:1012200080E090E00E94630161E087E00E94D200CC
:101230006AE070E080E090E00E94630160E087E097
:101240000E94D20068EE73E080E090E00E946301AB
:10125000DBCD0AE010E00BC00BE010E008C00CE0B2
:1012600010E005C00DE010E002C00EE010E0F1104B
:10127000CBCD0E30110509F081CF02EA11E0F80163
:10128000E190F1908F01E114F104A9F460ED77E0B1
:1012900080E090E00E94630161E087E00E94D2005C
:1012A0006AE070E080E090E00E94630160E087E027
:1012B0000E94D20012C060E089E00E94D200C70103
:1012C0000E944D030E948B0361E089E00E94D200DE
:1012D000C7010E944D030E948B03F1E00A3E1F07E5
:1012E00071F661E087E00E94D2006AE070E080E081
:1012F00090E00E94630160E087E00E94D20084CD0C
:1013000080910402882319F0109204027DCD81E0BF
:101310008093040279CD6FE671CF08E010E002C03F
:1013200009E010E0F110DCCCA4CFA1E21A2EAA1B38
:10133000BB1BFD010DC0AA1FBB1FEE1FFF1FA21785
:10134000B307E407F50720F0A21BB30BE40BF50B82
:10135000661F771F881F991F1A9469F7609570950B
:10136000809590959B01AC01BD01CF010895F89443
:02137000FFCFAD
:1013720020FFFF000000000000000000000000004D
:10138200000000000000000000000000000000005B
:10139200000000000000000000010100FFFF00004B
:1013A200000000000000000000000000000000003B
:1013B200000000000000000000000000000000002B
:1013C200000000000000000000000000000000001B
:1013D200000000000000000000000000000000000B
:1013E20000000000000000000000000000000000FB
:1013F20000000000000000000000000000000000EB
:10140200782D2D2D2D2D2D2D2D2D000002000600C5
:1014120008000100030005000800000002000400AB
:101422000500060007000900000001000200030099
:101432000500070008000900000002000400050082
:101442000600070009000000010003000400050077
:101452000600070009000000020003000400050066
:00000001FF
